:100000000C945D000C9485000C9485000C94850084
:100010000C9485000C9485000C9485000C9485004C
:100020000C9485000C9485000C9485000C94A1021E
:100030000C9485000C9485000C9485000C9485002C
:100040000C9457020C9485000C9425020C94FF012B
:100050000C9485000C9485000C9485000C9485000C
:100060000C9485000C94850000000008000201003B
:100070000003040700000000000000000000000072
:10008000250028002B0000000000240027002A0083
:10009000040404040404040402020202020203032E
:1000A0000303030301020408102040800102040836
:1000B0001020010204081020A20311241FBECFEF5C
:1000C000D8E0DEBFCDBF11E0A0E0B1E0EEEAF7E09E
:1000D00002C005900D92A033B107D9F721E0A0E34B
:1000E000B1E001C01D92AB3FB207E1F710E0CDE5F2
:1000F000D0E004C02197FE010E94CF03CC35D10788
:10010000C9F70E9405030C94D5030C94000090E0FD
:10011000FC01EC55FF4F249180579F4FFC018491C7
:10012000882399F090E0880F991FFC01EA57FF4F50
:10013000A591B491FC01E458FF4F859194918FB73C
:10014000F894EC91E22BEC938FBF0895AF92BF929D
:10015000CF92DF92EF92FF920F931F93CF93DF9393
:100160006C017B018B01040F151FEB015E01AE18C2
:10017000BF08C017D10759F06991D601ED91FC91E4
:100180000190F081E02DC6010995892B79F7C50111
:10019000DF91CF911F910F91FF90EF90DF90CF9063
:1001A000BF90AF900895FC01538D448D252F30E012
:1001B000842F90E0821B930B541710F0CF96089574
:1001C00001970895FC01918D828D981761F0A28DA1
:1001D000AE0FBF2FB11D5D968C91928D9F5F9F7367
:1001E000928F90E008958FEF9FEF0895FC01918D1D
:1001F000828D981731F0828DE80FF11D858D90E08A
:1002000008958FEF9FEF0895FC01918D228D892F26
:1002100090E0805C9F4F821B91098F73992708950E
:100220008EE591E00E94040121E0892B09F420E091
:10023000822F089580E090E0892B29F00E94100120
:1002400081110C9400000895FC01A48DA80FB92F12
:10025000B11DA35ABF4F2C91848D90E001968F73EE
:100260009927848FA689B7892C93A089B1898C910D
:10027000837080648C93938D848D981306C002885C
:10028000F389E02D80818F7D80830895EF92FF9226
:100290000F931F93CF93DF93EC0181E0888F9B8DA9
:1002A0008C8D98131AC0E889F989808185FF15C063
:1002B0009FB7F894EE89FF896083E889F989808186
:1002C0008370806480839FBF81E090E0DF91CF9155
:1002D0001F910F91FF90EF900895F62E0B8D10E077
:1002E0000F5F1F4F0F731127E02E8C8D8E110CC0E6
:1002F0000FB607FCFACFE889F989808185FFF5CF31
:10030000CE010E942401F1CFEB8DEC0FFD2FF11DEA
:10031000E35AFF4FF0829FB7F8940B8FEA89FB896D
:1003200080818062CFCFCF93DF93EC01888D8823CB
:10033000B9F0AA89BB89E889F9898C9185FD03C048
:10034000808186FD0DC00FB607FCF7CF8C9185FF2D
:10035000F2CF808185FFEDCFCE010E942401E9CF4D
:10036000DF91CF91089590E0FC01E859FF4F24916F
:10037000FC01EC55FF4F3491FC01E057FF4FE49135
:10038000EE23C9F0222339F0233001F1A8F4213003
:1003900019F1223029F1F0E0EE0FFF1FE458FF4F72
:1003A000A591B4918FB7F894EC91611126C0309566
:1003B0003E233C938FBF08952730A9F02830C9F021
:1003C000243049F7809180008F7D03C080918000A8
:1003D0008F7780938000DFCF84B58F7784BDDBCFAC
:1003E00084B58F7DFBCF8091B0008F778093B00074
:1003F000D2CF8091B0008F7DF9CF3E2BDACF1F9204
:100400000F920FB60F9211242F933F934F935F9348
:100410006F937F938F939F93AF93BF93EF93FF93CC
:100420008EE591E00E942401FF91EF91BF91AF9181
:100430009F918F917F916F915F914F913F912F91FC
:100440000F900FBE0F901F9018951F920F920FB62E
:100450000F9211242F938F939F93EF93FF93E0912B
:100460006E01F0916F018081E0917401F09175014E
:1004700082FD1BC09081809177018F5F8F732091E7
:100480007801821741F0E0917701F0E0E25AFE4FE7
:10049000958F80937701FF91EF919F918F912F918D
:1004A0000F900FBE0F901F9018958081F4CF1F9270
:1004B0000F920FB60F9211242F933F938F939F9318
:1004C000AF93BF9380915A0190915B01A0915C0121
:1004D000B0915D013091590123E0230F2D3758F57C
:1004E0000196A11DB11D2093590180935A0190934B
:1004F0005B01A0935C01B0935D01809155019091E7
:100500005601A0915701B09158010196A11DB11D4E
:100510008093550190935601A0935701B0935801D1
:10052000BF91AF919F918F913F912F910F900FBEEF
:100530000F901F90189526E8230F0296A11DB11D5C
:10054000D2CF1F920F920FB60F9211242F933F9389
:100550008F939F93EF93FF938091540187FF1FC068
:100560001092850010928400809154018F5F8093D7
:1005700054018091540187FF04C0809154018C3054
:10058000ACF08091840090918500049680349C4961
:1005900090F1809184009091850004962EC0809106
:1005A000540187FFE1CF80915401DECF2091840078
:1005B00030918500E09154018E2FEE0F990BFC01D4
:1005C000EE0FFF1FE80FF91FE05DFE4F8181928162
:1005D000820F931F9093890080938800809154012B
:1005E000FF91EF919F918F913F912F910F900FBEAF
:1005F0000F901F90189580E49CE990938900809358
:1006000088008FEF80935401EBCF789484B582609B
:1006100084BD84B5816084BD85B5826085BD85B5A6
:10062000816085BD80916E00816080936E00109224
:10063000810080918100826080938100809181009F
:100640008160809381008091800081608093800030
:100650008091B10084608093B1008091B00081608E
:100660008093B00080917A00846080937A008091BA
:100670007A00826080937A0080917A008160809312
:100680007A0080917A00806880937A001092C1008D
:10069000E0916E01F0916F0182E08083E0916A0148
:1006A000F0916B011082E0916C01F0916D018FEC83
:1006B000808310927601E0917201F091730186E0DF
:1006C0008083E0917001F09171018081806180836D
:1006D000E0917001F0917101808188608083E091E8
:1006E0007001F0917101808180688083E0917001D8
:1006F000F091710180818F7D808349E150E062E15A
:1007000071E08EE591E00E94A60042E050E06CE2CC
:1007100071E08EE591E00E94A60082E00E948700D1
:1007200083E00E948700C0E0D0E060E083E00E94A8
:10073000B3012097D1F30E9410018823B1F30E94E6
:100740000000F3CFEEE5F1E01382128288EE93E031
:10075000A0E0B0E084839583A683B78384E091E032
:100760009183808385EC90E09587848784EC90E08A
:100770009787868780EC90E0918B808B81EC90E06E
:10078000938B828B82EC90E0958B848B86EC90E04F
:10079000978B868B118E128E138E148E0895EE0F0A
:0E07A000FF1F0590F491E02D0994F894FFCF0F
:1007AE00000000004601A600D30093010401E20000
:1007BE00F600496E697469616C69736174696F6E74
:1007CE0020636F6E6E6578696F6E3A000D0A0000D9
:00000001FF
