:020000040000FA
:100000000C9462000C948A000C948A000C948A0070
:100010000C948A000C948A000C948A000C948A0038
:100020000C948A000C948A000C948A000C9461034E
:100030000C948A000C948A000C948A000C948A0018
:100040000C9417030C948A000C94E5020C94BF02E4
:100050000C948A000C948A000C948A000C948A00F8
:100060000C948A000C948A000000000024002700F1
:100070002A0000000000250028002B0000000008D6
:10008000000201000003040700000000000000005F
:1000900000000000230026002900040404040404D6
:1000A0000404020202020202030303030303010227
:1000B00004081020408001020408102001020408F6
:1000C0001020AD0511241FBECFEFD8E0DEBFCDBF9D
:1000D00011E0A0E0B1E0E0E8F0E102C005900D928F
:1000E000AE34B107D9F722E0AEE4B1E001C01D9211
:1000F000A931B207E1F710E0C2E6D0E004C02197D1
:10010000FE010E943808C136D107C9F70E940A04CF
:100110000C943E080C940000AF92BF92CF92DF92F5
:10012000EF92FF920F931F93CF93DF936C017B01AC
:100130008B01040F151FEB015E01AE18BF08C0173D
:10014000D10759F06991D601ED91FC910190F081B0
:10015000E02DC6010995892B79F7C501DF91CF9173
:100160001F910F91FF90EF90DF90CF90BF90AF90D5
:100170000895FC01538D448D252F30E0842F90E0AD
:10018000821B930B541710F0CF9608950197089592
:10019000FC01918D828D981761F0A28DAE0FBF2F5B
:1001A000B11D5D968C91928D9F5F9F73928F90E0B1
:1001B00008958FEF9FEF0895FC01918D828D981720
:1001C00031F0828DE80FF11D858D90E008958FEF5D
:1001D0009FEF0895FC01918D228D892F90E0805C26
:1001E0009F4F821B91098F73992708958CE791E0A7
:1001F0000E94EA0021E0892B09F420E0822F089573
:1002000080E090E0892B29F00E94F60081110C9487
:1002100000000895FC01A48DA80FB92FB11DA35AA9
:10022000BF4F2C91848D90E001968F739927848F16
:10023000A689B7892C93A089B1898C918370806439
:100240008C93938D848D981306C00288F389E02DDA
:1002500080818F7D80830895EF92FF920F931F938B
:10026000CF93DF93EC0181E0888F9B8D8C8D981369
:100270001AC0E889F989808185FF15C09FB7F89475
:10028000EE89FF896083E889F989808183708064C1
:1002900080839FBF81E090E0DF91CF911F910F910C
:1002A000FF90EF900895F62E0B8D10E00F5F1F4F1B
:1002B0000F731127E02E8C8D8E110CC00FB607FC2A
:1002C000FACFE889F989808185FFF5CFCE010E94B8
:1002D0000A01F1CFEB8DEC0FFD2FF11DE35AFF4F1B
:1002E000F0829FB7F8940B8FEA89FB898081806246
:1002F000CFCFCF93DF93EC01888D8823B9F0AA8903
:10030000BB89E889F9898C9185FD03C0808186FDD0
:100310000DC00FB607FCF7CF8C9185FFF2CF80811F
:1003200085FFEDCFCE010E940A01E9CFDF91CF9189
:10033000089590E0FC01E458FF4F2491FC01E25540
:10034000FF4F3491FC01E656FF4FE491EE23C9F0D4
:10035000222339F0233001F1A8F4213019F12230A1
:1003600029F1F0E0EE0FFF1FEE58FF4FA591B49179
:100370008FB7F894EC91611126C030953E233C93E1
:100380008FBF08952730A9F02830C9F0243049F7ED
:10039000809180008F7D03C0809180008F77809353
:1003A0008000DFCF84B58F7784BDDBCF84B58F7DB0
:1003B000FBCF8091B0008F778093B000D2CF809137
:1003C000B0008F7DF9CF3E2BDACFCF93DF9390E053
:1003D000FC01E255FF4F249186569F4FFC0184910A
:1003E0008823D1F090E0880F991FFC01E859FF4F56
:1003F000A591B491FC01EE58FF4FC591D4916111C4
:100400000EC09FB7F8948C91E22FE0958E238C93C9
:100410002881E223E8839FBFDF91CF9108958FB7B2
:10042000F894EC91E22BEC938FBFF6CF3FB7F894A2
:100430008091780190917901A0917A01B0917B012E
:1004400026B5A89B05C02F3F19F00196A11DB11D2F
:100450003FBFBA2FA92F982F8827BC01CD01620F6B
:10046000711D811D911D42E0660F771F881F991F26
:100470004A95D1F708958F929F92AF92BF92CF92F3
:10048000DF92EF92FF926B017C010E9416024B01FA
:100490005C01C114D104E104F104B9F00E94160218
:1004A000681979098A099B09683E7340810591059D
:1004B00080F321E0C21AD108E108F10888EE880E25
:1004C00083E0981EA11CB11CE4CFFF90EF90DF9059
:1004D000CF90BF90AF909F908F900895FC010190B6
:1004E0000020E9F73197AF01481B590BBC018CE79D
:1004F00091E00C948C008F929F92AF92BF920F93D9
:100500001F93CF93DF93CDB7DEB7A1970FB6F894C3
:10051000DEBF0FBECDBF19A2423008F44AE08E0103
:100520000F5D1F4F842E912CB12CA12CA50194019D
:100530000E94DA05E62FB901CA01EA30F4F4E05D61
:10054000D801EE938D01232B242B252B79F790E0F6
:1005500080E0109719F0CD010E946E02A1960FB6AF
:10056000F894DEBF0FBECDBFDF91CF911F910F91E9
:10057000BF90AF909F908F900895E95CE1CF1F925C
:100580000F920FB60F9211242F933F934F935F93C7
:100590006F937F938F939F93AF93BF93EF93FF934B
:1005A0008CE791E00E940A01FF91EF91BF91AF911A
:1005B0009F918F917F916F915F914F913F912F917B
:1005C0000F900FBE0F901F9018951F920F920FB6AD
:1005D0000F9211242F938F939F93EF93FF93E091AA
:1005E0008C01F0918D018081E0919201F091930155
:1005F00082FD1BC09081809195018F5F8F73209148
:100600009601821741F0E0919501F0E0E458FE4F29
:10061000958F80939501FF91EF919F918F912F91ED
:100620000F900FBE0F901F9018958081F4CF1F92EE
:100630000F920FB60F9211242F933F938F939F9396
:10064000AF93BF938091740190917501A091760151
:10065000B09177013091730123E0230F2D3758F5C6
:100660000196A11DB11D2093730180937401909395
:100670007501A0937601B0937701809178019091F4
:100680007901A0917A01B0917B010196A11DB11D64
:100690008093780190937901A0937A01B0937B01C4
:1006A000BF91AF919F918F913F912F910F900FBE6E
:1006B0000F901F90189526E8230F0296A11DB11DDB
:1006C000D2CF1F920F920FB60F9211242F933F9308
:1006D0008F939F93EF93FF938091720187FF1FC0C9
:1006E0001092850010928400809172018F5F809338
:1006F00072018091720187FF04C0809172018C3079
:10070000ACF08091840090918500049680349C49DF
:1007100090F1809184009091850004962EC0809184
:10072000720187FFE1CF80917201DECF20918400BA
:1007300030918500E09172018E2FEE0F990BFC0134
:10074000EE0FFF1FE80FF91FE25BFE4F81819281E0
:10075000820F931F9093890080938800809172018B
:10076000FF91EF919F918F913F912F910F900FBE2D
:100770000F901F90189580E49CE9909389008093D6
:1007800088008FEF80937201EBCFCF92DF92EF92D0
:10079000FF920F931F93E82FF92F05C00150110905
:1007A0002109310961F1908196239417B9F305C0AD
:1007B000015011092109310911F1908196239413F7
:1007C000F7CFC12CD12CE12CF12C0AC08FEFC81A25
:1007D000D80AE80AF80A0C151D052E053F0579F020
:1007E00080818623841791F36C2D7D2D8E2D9F2D76
:1007F0001F910F91FF90EF90DF90CF90089560E0F0
:1008000070E080E090E01F910F91FF90EF90DF90FB
:10081000CF900895789484B5826084BD84B581605A
:1008200084BD85B5826085BD85B5816085BD8091BB
:100830006E00816080936E00109281008091810033
:10084000826080938100809181008160809381002B
:10085000809180008160809380008091B1008460ED
:100860008093B1008091B00081608093B00080914E
:100870007A00846080937A0080917A00826080930D
:100880007A0080917A00816080937A0080917A006A
:10089000806880937A001092C100E0918C01F09101
:1008A0008D0182E08083E0918801F09189011082BE
:1008B000E0918A01F0918B018FEC8083109294017A
:1008C000E0919001F091910186E08083E0918E01AA
:1008D000F0918F01808180618083E0918E01F091A1
:1008E0008F01808188608083E0918E01F0918F017B
:1008F000808180688083E0918E01F0918F018081FA
:100900008F7D808386E191E00E946E0280E391E01A
:100910000E946E0261E08AE00E94E50193E2292EC6
:10092000312CC0E0D0E061E086E00E94E50160E0AB
:1009300086E00E94990183E090E00197F1F761E081
:1009400086E00E949901C1010197F1F760E086E01D
:100950000E94990160E086E00E94E501E4EBF0E08E
:100960006491E0EAF0E08491E82FF0E0EE0FFF1FE1
:10097000E057FF4F8591949100E412E42FE030E0BE
:10098000462F0E94C503611571058105910529F067
:100990006F5F7F4F8F4F9F4F9F700E940F0720E028
:1009A00030E048E652E40E946E066B017C0183E36E
:1009B00091E00E946E02A7019601C701B6010E9454
:1009C0003308882309F44DC082E491E00E946E024E
:1009D00080E391E00E946E0220E030E048E452E4BF
:1009E000C701B6010E946E066B017C01C092000136
:1009F000D0920101E0920201F092030120E030E088
:100A000040E050E40E94690687FF14C060E08AE07D
:100A10000E94990120E030E04AE754E4C701B601A2
:100A20000E94C6070E94E0060E943B0261E08AE045
:100A30000E94990120E030E04AE754E4C701B60182
:100A40000E94C6070E94E0060E943B02209709F41C
:100A50006ACF0E94F600882309F465CF0E94000047
:100A600062CF2FEF3FEF4FE75FE7C701B6010E946C
:100A7000330881110DC02FEF3FEF4FE75FE7C7014C
:100A8000B6010E94690618161CF486E491E09ECF18
:100A90002FEF3FEF4FE75FE4C701B6010E94C107A8
:100AA00018161CF48AE491E091CF2FEF3FEF4FE747
:100AB0005FECC701B6010E94690687FDF3CF2AE00B
:100AC00037ED43EA5BE3C701B6010E94FD052B0148
:100AD0003C010E94E0064B015C010E940F079B0154
:100AE000AC01C301B2010E94FC052B013C014AE0AC
:100AF000C501B4010E947B026EE28CE791E00E9486
:100B00002C0120E030E040E251E4C301B2010E9438
:100B1000C6072B013C010E94E0064B01B12CA12C21
:100B20004AE0C501B4010E947B02C501B4010E94E4
:100B30000F079B01AC01C301B2010E94FC0520E03C
:100B400030E040E251E40E94C6070E94E00690E0D7
:100B500080E04AE00E947B023BCFECE7F1E01382A9
:100B6000128288EE93E0A0E0B0E084839583A683B0
:100B7000B78388E091E09183808385EC90E095874E
:100B8000848784EC90E09787868780EC90E0918B57
:100B9000808B81EC90E0938B828B82EC90E0958B44
:100BA000848B86EC90E0978B868B118E128E138E41
:100BB000148E0895A1E21A2EAA1BBB1BFD010DC0C5
:100BC000AA1FBB1FEE1FFF1FA217B307E407F507FD
:100BD00020F0A21BB30BE40BF50B661F771F881FD9
:100BE000991F1A9469F760957095809590959B016F
:100BF000AC01BD01CF0108955058BB27AA270E9420
:100C000014060C9487070E94790738F00E94800729
:100C100020F039F49F3F19F426F40C9476070EF473
:100C2000E095E7FB0C947007E92F0E94980758F3B2
:100C3000BA17620773078407950720F079F4A6F5C1
:100C40000C94BA070EF4E0950B2EBA2FA02D0B01D1
:100C5000B90190010C01CA01A0011124FF27591B01
:100C600099F0593F50F4503E68F11A16F040A22F07
:100C7000232F342F4427585FF3CF46953795279578
:100C8000A795F0405395C9F77EF41F16BA0B620B77
:100C9000730B840BBAF09150A1F0FF0FBB1F661FBE
:100CA000771F881FC2F70EC0BA0F621F731F841F01
:100CB00048F4879577956795B795F7959E3F08F027
:100CC000B0CF9395880F08F09927EE0F97958795E9
:100CD00008950E944C0708F481E008950E9482065E
:100CE0000C9487070E94800758F00E94790740F013
:100CF00029F45F3F29F00C94700751110C94BB0745
:100D00000C9476070E94980768F39923B1F3552352
:100D100091F3951B550BBB27AA276217730784070E
:100D200038F09F5F5F4F220F331F441FAA1FA9F3A4
:100D300035D00E2E3AF0E0E832D091505040E69592
:100D4000001CCAF72BD0FE2F29D0660F771F881FF3
:100D5000BB1F261737074807AB07B0E809F0BB0BE6
:100D6000802DBF01FF2793585F4F3AF09E3F5105FA
:100D700078F00C9470070C94BB075F3FE4F3983E47
:100D8000D4F3869577956795B795F7959F5FC9F7E3
:100D9000880F911D9695879597F90895E1E0660F64
:100DA000771F881FBB1F621773078407BA0720F0DD
:100DB000621B730B840BBA0BEE1F88F7E095089546
:100DC0000E94A00788F09F5798F0B92F9927B75134
:100DD000B0F0E1F0660F771F881F991F1AF0BA95DF
:100DE000C9F714C0B13091F00E94BA07B1E008957C
:100DF0000C94BA07672F782F8827B85F39F0B93F6E
:100E0000CCF3869577956795B395D9F73EF4909591
:100E10008095709561957F4F8F4F9F4F0895E8940F
:100E200009C097FB3EF490958095709561957F4F32
:100E30008F4F9F4F9923A9F0F92F96E9BB279395E0
:100E4000F695879577956795B795F111F8CFFAF4F0
:100E5000BB0F11F460FF1BC06F5F7F4F8F4F9F4F21
:100E600016C0882311F096E911C0772321F09EE87F
:100E7000872F762F05C0662371F096E8862F70E0E5
:100E800060E02AF09A95660F771F881FDAF7880FBF
:100E90009695879597F90895990F0008550FAA0B15
:100EA000E0E8FEEF16161706E807F907C0F012167D
:100EB0001306E407F50798F0621B730B840B950B80
:100EC00039F40A2661F0232B242B252B21F40895D5
:100ED0000A2609F4A140A6958FEF811D811D089572
:100EE00097F99F6780E870E060E008959FEF80ECDD
:100EF000089500240A941616170618060906089580
:100F000000240A9412161306140605060895092EE5
:100F10000394000C11F4882352F0BB0F40F4BF2B54
:100F200011F460FF04C06F5F7F4F8F4F9F4F089594
:100F300057FD9058440F551F59F05F3F71F047958A
:100F4000880F97FB991F61F09F3F79F0879508956F
:100F5000121613061406551FF2CF4695F1DF08C08E
:100F6000161617061806991FF1CF869571056105AB
:100F700008940895E894BB2766277727CB0197F953
:100F800008950E944C0708F48FEF08950E94D90736
:100F90000C9487070E94790738F00E94800720F0A0
:100FA000952311F00C9470070C94760711240C947F
:100FB000BB070E94980770F3959FC1F3950F50E00F
:100FC000551F629FF001729FBB27F00DB11D639FFB
:100FD000AA27F00DB11DAA1F649F6627B00DA11DA1
:100FE000661F829F2227B00DA11D621F739FB00D47
:100FF000A11D621F839FA00D611D221F749F3327B7
:10100000A00D611D231F849F600D211D822F762F4F
:101010006A2F11249F5750409AF0F1F088234AF02C
:10102000EE0FFF1FBB1F661F771F881F9150504098
:10103000A9F79E3F510580F00C9470070C94BB07F4
:101040005F3FE4F3983ED4F3869577956795B7951F
:10105000F795E7959F5FC1F7FE2B880F911D969539
:10106000879597F908950E944C07880B990B08956E
:10107000EE0FFF1F0590F491E02D0994F894FFCF37
:1010800000001041000000002C018C00B900790123
:10109000EA00C800DC00496E697469616C697361BB
:1010A00074696F6E20636F6E6E6578696F6E3A005B
:1010B0000D0A00202064697374616E63652020202E
:0E10C00020006E616E00696E66006F7666003D
:107800000C94343C0C94513C0C94513C0C94513CE1
:107810000C94513C0C94513C0C94513C0C94513CB4
:107820000C94513C0C94513C0C94513C0C94513CA4
:107830000C94513C0C94513C0C94513C0C94513C94
:107840000C94513C0C94513C0C94513C0C94513C84
:107850000C94513C0C94513C0C94513C0C94513C74
:107860000C94513C0C94513C11241FBECFEFD8E036
:10787000DEBFCDBF11E0A0E0B1E0ECE9FFE702C060
:1078800005900D92A230B107D9F712E0A2E0B1E065
:1078900001C01D92AD30B107E1F70E942D3D0C945F
:1078A000CC3F0C94003C982F959595959595959582
:1078B000905D8F708A307CF0282F295A8091C0000B
:1078C00085FFFCCF9093C6008091C00085FFFCCF60
:1078D0002093C6000895282F205DF0CF982F809127
:1078E000C00085FFFCCF9093C6000895EF92FF92F1
:1078F0000F931F93EE24FF2487018091C00087FD22
:1079000017C00894E11CF11C011D111D81E4E8164B
:1079100082E4F8068FE0080780E0180770F3E09132
:107920000401F091050109958091C00087FFE9CF1E
:107930008091C6001F910F91FF90EF9008950E94D3
:10794000763C982F8091C00085FFFCCF9093C600B5
:1079500091362CF490330CF09053892F089597555D
:10796000892F08951F930E949F3C182F0E949F3CCF
:107970001295107F810F1F9108951F93182F882350
:1079800021F00E94763C1150E1F71F9108951F935A
:10799000182F0E94763C803249F0809103018F5F5E
:1079A000809303018530C1F01F9108958091C0003C
:1079B00085FFFCCF84E18093C6008091C00085FFE5
:1079C000FCCF1093C6008091C00085FFFCCF80E102
:1079D0008093C6001F910895E0910401F091050184
:1079E00009951F9108950E94763C803241F0809164
:1079F00003018F5F80930301853081F008958091AA
:107A0000C00085FFFCCF84E18093C6008091C00058
:107A100085FFFCCF80E18093C6000895E0910401CA
:107A2000F09105010995089540E951E08823A1F0FE
:107A30002D9A28EE33E0FA013197F1F721503040CA
:107A4000D1F72D9828EE33E0FA013197F1F7215064
:107A50003040D1F7815061F708953F924F925F9285
:107A60006F927F928F929F92AF92BF92CF92DF924E
:107A7000EF92FF920F931F93CF93DF93000080E16B
:107A80008093C4001092C50088E18093C10086E015
:107A90008093C2005098589A259A81E00E94143D24
:107AA00024E1F22E9EE1E92E85E9D82E0FE0C02ECA
:107AB00010E1B12EAA24A394B1E49B2EA6E58A2E50
:107AC000F2E57F2EE0E26E2E79E4572E63E5462E36
:107AD00050E5352E0E94763C8033B1F18133B9F107
:107AE000803409F46FC0813409F476C0823409F41B
:107AF00085C0853409F488C0803531F1823521F1A3
:107B0000813511F1853509F485C0863509F48DC0BC
:107B1000843609F496C0843709F403C1853709F423
:107B200072C1863709F466C0809103018F5F80932C
:107B30000301853079F6E0910401F0910501099582
:107B40000E94763C803351F60E94F33CC3CF0E94E2
:107B5000763C803249F78091C00085FFFCCFF092DF
:107B6000C6008091C00085FFFCCF9092C600809136
:107B7000C00085FFFCCF8092C6008091C00085FFC9
:107B8000FCCF7092C6008091C00085FFFCCF609250
:107B9000C6008091C00085FFFCCF5092C600809146
:107BA000C00085FFFCCF4092C6008091C00085FFD9
:107BB000FCCF3092C6008091C00085FFFCCFB09210
:107BC000C60088CF0E94763C863808F4BDCF0E945C
:107BD000763C0E94F33C7ECF0E94763C803809F4CC
:107BE0009CC0813809F40BC1823809F43CC1883942
:107BF00009F48FC080E00E94C73C6CCF84E10E94F2
:107C0000BD3C0E94F33C66CF85E00E94BD3C0E94D3
:107C1000F33C60CF0E94763C809306010E94763C44
:107C2000809307010E94F33C55CF0E94763C80333D
:107C300009F41DC183E00E94BD3C80E00E94C73C66
:107C400049CF0E94763C809309020E94763C809343
:107C5000080280910C028E7F80930C020E94763C79
:107C6000853409F415C18091080290910902892B8D
:107C700089F000E010E00E94763CF801E85FFE4FDA
:107C800080830F5F1F4F80910802909109020817AF
:107C9000190788F30E94763C803209F045CF809125
:107CA0000C0280FF01C16091060170910701660F0F
:107CB000771F7093070160930601A0910802B091AD
:107CC00009021097C9F0E8E0F1E09B01AD014E0F09
:107CD0005F1FF999FECF32BD21BD819180BDFA9A17
:107CE000F99A2F5F3F4FE417F50799F76A0F7B1F4B
:107CF00070930701609306018091C00085FFFCCF5F
:107D0000F092C6008091C00085FFFCCFB092C60003
:107D1000E1CE83E00E94C73CDDCE82E00E94C73CFA
:107D2000D9CE0E94763C809309020E94763C8093D3
:107D300008028091060190910701880F991F909386
:107D40000701809306010E94763C853409F4A6C0A1
:107D500080910C028E7F80930C020E94763C8032D0
:107D600009F0B8CE8091C00085FFFCCFF092C6002C
:107D7000609108027091090261157105B9F140E046
:107D800050E080910C02A82FA170B82FB27011C0E2
:107D9000BB2309F45CC0E0910601F0910701319624
:107DA000F0930701E09306014F5F5F4F46175707B7
:107DB000E8F4AA2369F3F999FECF209106013091E6
:107DC000070132BD21BDF89A90B58091C00085FFB2
:107DD000FCCF9093C6002F5F3F4F30930701209355
:107DE00006014F5F5F4F4617570718F38091C00099
:107DF00085FDE5CE8091C00085FFF8CFE0CE81E023
:107E00000E94C73C67CE0E94763C803209F08CCE3F
:107E10008091C00085FFFCCFF092C6008091C00029
:107E200085FFFCCFE092C6008091C00085FFFCCFAB
:107E3000D092C6008091C00085FFFCCFC092C600E2
:107E40008091C00085FFFCCFB092C60043CEE09188
:107E50000601F091070194918091C00085FFFCCF4D
:107E60009093C6009CCF80E10E94C73C33CE0E9415
:107E7000763C0E94763C182F0E94763C112309F430
:107E800083C0113009F484C08FE00E94C73C22CE29
:107E900080910C02816080930C02E5CE80910C02EF
:107EA000816080930C0259CF809107018823880F4D
:107EB000880B8A2180930B02809106019091070123
:107EC000880F991F90930701809306018091080203
:107ED00080FF09C080910802909109020196909359
:107EE000090280930802F894F999FECF1127E091D6
:107EF0000601F0910701C8E0D1E08091080290915D
:107F00000902103091F40091570001700130D9F34B
:107F100003E000935700E89500915700017001308D
:107F2000D9F301E100935700E89509901990009169
:107F3000570001700130D9F301E000935700E89534
:107F40001395103498F011270091570001700130FB
:107F5000D9F305E000935700E895009157000170B0
:107F60000130D9F301E100935700E895329602976A
:107F700009F0C7CF103011F00296E5CF112480919F
:107F8000C00085FFB9CEBCCE8EE10E94C73CA2CD19
:0E7F900085E90E94C73C9ECDF894FFCF80008B
:00000001FF
